:020000040800F2
:10000000480A002071020008790200087B020008FB
:100010007D0200087F020008810200080000000045
:100020000000000000000000000000008302000843
:10003000850200080000000087020008890200080D
:100040008B0200088B0200088B0200088B0200085C
:100050008B0200088B0200088B0200088B0200084C
:100060008B0200088B0200088B0200088B0200083C
:100070008B0200088B0200088B0200088B0200082C
:100080008B0200088B0200088B0200088B0200081C
:100090008B0200088B0200088B0200088B0200080C
:1000A0008B0200088B0200088B0200088B020008FC
:1000B0008B0200088B0200088B0200088B020008EC
:1000C0008B0200088B020008790500088B020008EB
:1000D0008B020008BD0900088B0200088B02000893
:1000E0008B0200088B0200088B0200088B020008BC
:1000F0008B0200088B0200088B0200088B020008AC
:100100008B0200088B020008BD0800088B02000863
:100110006D0900088B020008150900088B02000811
:100120008B0200088B0200088B0200088B0200087B
:100130008B0200088B0200088B0200088B0200086B
:100140008B0200088B0200088B0200088B0200085B
:100150008B0200088B0200088B0200088B0200084B
:100160008B0200088B0200088B0200088B0200083B
:100170008B0200088B0200088B02000800000000C0
:100180008B0200088B02000800F002F800F060F813
:100190000AA090E8000C82448344AAF10107DA45E2
:1001A00001D100F055F8AFF2090EBAE80F0013F0D4
:1001B000010F18BFFB1A43F001031847B44F0000AA
:1001C000D44F00000A444FF0000C10F8013B13F02C
:1001D000070408BF10F8014B1D1108BF10F8015BA0
:1001E000641E05D010F8016B641E01F8016BF9D193
:1001F00013F0080F1EBF10F8014BAD1C0C1B09D1EA
:100200006D1E58BF01F801CBFAD505E014F8016B5B
:1002100001F8016B6D1EF9D59142D6D370470000ED
:100220000023002400250026103A28BF78C1FBD8FF
:10023000520728BF30C148BF0B6070471FB504F09C
:10024000DCFE9DE8030000F0A9F81FBD10B510BD4D
:1002500000F010F91146FFF7F1FF02F0A7FE00F0E1
:100260002EF903B4FFF7F2FF03BC00F05FF90000C2
:100270000948804709480047FEE7FEE7FEE7FEE73A
:10028000FEE7FEE7FEE7FEE7FEE7FEE70448054976
:10029000054A064B7047000059080008890100080C
:1002A00048040020480A0020480600204806002094
:1002B00070B5064600F056F8056806F10B0020F010
:1002C0000704B4429CBF002070BD2B466A68BAB1D7
:1002D0001068A04210D304F1080188423CBF506866
:1002E000586007D35168101941601168091B0160FB
:1002F00058601460101D70BD13465268002AE7D183
:100300002146284600F036F80028DED170BD70B5D1
:100310000446051F00F026F80068002C14BF44684E
:1003200070BD002C18BFAC423CBF20466468F8D3B7
:1003300001680A18AA4218BF456003D12A68054619
:100340001144016028684119A1421CBF6C6070BD56
:100350006168696021680844286070BD7047704713
:100360007047000000487047F00300207047704756
:100370007047704738B504460A4600206946AFF317
:100380000080002808BF38BD02460099204600F0D2
:100390004FF8012038BD012000F064B8F8B5AFF384
:1003A0000080054600200C46102000BF0646A81914
:1003B000A0420DD9324669460020AFF30080070005
:1003C00008BF00F04FF80098A04218BF0546C419B6
:1003D000FFF7C8FF05600746F01D20F0070046192B
:1003E000284600F00AF8B44208BFF8BDA21B314607
:1003F0003868BDE8F84000F01BB800210160C0E992
:10040000011070471020704710B500F00DF800681B
:1004100010BD10B5044600F007F8046010BD0000E0
:1004200000487047E803002000487047E8030020B8
:10043000034640688C46002818BF88423CBF0346EC
:100440004068F8D318681844884207D00CF10300BC
:1004500020F00700001D411A521A0146081D0A60CB
:10046000FFF755BF10B500F039F8BDE8104000F0B7
:100470002FB870477546FFF7D3FFAE4605006946B3
:10048000534620F00700854618B020B5FFF7FEFE62
:10049000BDE820404FF000064FF000074FF0000885
:1004A0004FF0000B21F00701AC46ACE8C009ACE806
:1004B000C009ACE8C009ACE8C0098D46704710B56A
:1004C0000446AFF300802046BDE81040FFF7C9BEE8
:1004D000002801D000F02AB87047000010B50128AC
:1004E00005D0002103A000F027F8012010BD09A1CC
:1004F000F8E7000053494752544D454D3A204F7597
:1005000074206F662068656170206D656D6F72790B
:10051000000000003A2048656170206D656D6F72C3
:100520007920636F727275707465640001491820D8
:10053000ABBEFEE72600020070B505460C460A2059
:1005400000E06D1C00F011F835B128780028F8D1D2
:1005500002E0641C00F009F814B120780028F8D1FA
:10056000BDE870400A20AFF3008008B569468DF8F9
:1005700000000320ABBE08BD1748006800F40070FF
:1005800048B11548006820F4007013490860032042
:100590001249087170471048006800F4806048B143
:1005A0000D48006820F480600B49086001200B4969
:1005B0000871EFE70848006800F4807048B1064809
:1005C000006820F480700449086004200349087121
:1005D000E0E700BFDEE70000145800408000002084
:1005E000016841F0010101607047000070B52DED18
:1005F000048B044634492068884206D13348006899
:1006000040F400103149086014E031492068884204
:1006100006D12E48006840F480002C49086009E0AB
:100620002C492068884205D12848006840F4000021
:10063000264908602068406820F03F002168486033
:1006400002F060FEA82191FBF0F502F05BFEA8210C
:1006500091FBF0F0216849680843216848602068F0
:10066000406840F48070216848602068C06940F4A8
:1006700000402168C86102F045FE174991FBF0F087
:10068000032190FBF1F0642190FBF1F6304604F079
:10069000E6F841EC190BB0EE490AF0EE690A00F0F9
:1006A000E7F9B0EE408AF0EE608A51EC180B04F0E6
:1006B000A9F82168C96908432168C8610F20216829
:1006C0000862BDEC048B70BD00540040403802400D
:1006D00000580040005C0040409002002A4800683A
:1006E00040F480302849086000BF2748006800F4C3
:1006F00000300028F9D024484030006840F0805095
:100700002149403108602148006840F480401F4979
:1007100008601D48083000681B4908310860084619
:10072000006840F4004008600846006840F4A050AB
:1007300008601748091F0860081F006840F08070B3
:10074000091F086003E040F20570124908600E4876
:10075000006800F000700028F5D00B4808300068F1
:1007600020F003000849083108600846006840F09E
:100770000200086000BF04480830006800F008006C
:100780000028F8D070470000003802400070004098
:1007900008544007003C024070B5002000220223AC
:1007A00000240221274D2D6805F00C0020B10428FB
:1007B00006D0082834D107E0234D244E356033E0BD
:1007C000234D224E35602FE01E4D2D1F2D68C5F3A1
:1007D00080541C4D2D1F2D6805F03F0154B11C4D58
:1007E000B5FBF1F5174E361F3668C6F3881605FBC4
:1007F00006F209E0144DB5FBF1F5124E361F3668CE
:10080000C6F3881605FB06F20E4D2D1F2D68C5F3A5
:1008100001456D1C6B00B2FBF3F50C4E356003E037
:10082000094D0A4E356000BF00BF064D2D68C5F367
:100830000315084E705D054D2D68C540034E3560AB
:1008400070BD0000083802400024F4004C01002074
:1008500000127A00385000081448006840F4700014
:10086000124908601248006840F001001049086011
:1008700000200F49083108600D4800680D49084004
:100880000B4908600C48091D0860081F006820F427
:100890008020091F0860002005490C3108604FF0D6
:1008A00000600249803908607047000088ED00E070
:1008B00000380240FFFFF6FE1030002410B5124849
:1008C000006800F00100E8B101210F48103803F082
:1008D000C8F90E49002002F00DF80C49243101201E
:1008E00002F008F809494831022002F003F80848EC
:1008F00001F0C2FE0648103001F0BEFE0448203070
:1009000001F0BAFE10BD0000100C00404C030020A6
:10091000B803002010B51248006900F00100F0B1E2
:1009200001210F4803F09DF90E4800680A300D4977
:10093000086002F013FD01F0C3F803F07FFB0A48E2
:10094000807820B101F056FD02F02EFF00E000BFDC
:100950000548407818B101F037F802F0CBFE10BD21
:100960000010004088000020A1000020104800680E
:1009700000F02000C8B10E49096821F020010C4A9E
:100980001160111D0968C8B20A490968491C094A61
:10099000116011460A6808498A4202D32039054A83
:1009A0001160044909680870704700BFFCE7000047
:1009B000004C0040940000208F01002010B50D482D
:1009C000006800F0200098B10A48006820F020007C
:1009D0000849086008464068C4B2074800680470C7
:1009E00001210548006802F05FFA0349086010BD64
:1009F00000BFFCE7001001409C00002003B40198F8
:100A00004100009850EAC12018BF04204A0D18BFC9
:100A100040F0010040F2FF72B2EB515F08BF40F0BE
:100A20000200012808BF052002B07047002809DB3A
:100A300000F01F02012191404209920002F1E022E0
:100A4000C2F800117047000010B5002804DB0A0747
:100A5000130E054A135406E00A07140E034A00F069
:100A60000F031B1FD45410BD00E400E018ED00E09C
:100A70002DE9F0412DED020B9FED3D0B2DED028B8D
:100A80009FED3D8BDDE90254C4F30A50A0F2FF361E
:100A9000142E37DA002E18DA53EC102B9DED020BD2
:100AA00051EC100B03F072FC53EC182B04F03CF8E3
:100AB00057D2002CBCBF4FF00044002551DB54EA54
:100AC000050018BF2E4C1BD14BE02E4820FA06F72C
:100AD00004EA070028431FD053EC102B9DED020BB6
:100AE00051EC100B03F052FC53EC182B04F01CF8E3
:100AF00037D2002C03DD4FF48010F0400444BC4397
:100B000000252EE0332E07DCA6F114004FF0FF3154
:100B100021FA00F73D4206D19DED020BBDEC028BA0
:100B200002B0BDE8F08153EC102B9DED020B51ECAF
:100B3000100B04F02FF853EC182B03F0F5FF10D234
:100B4000002C0DDD142E08BF641C09D0C6F1340042
:100B5000012101FA00F02844A84238BF641C054670
:100B6000BD43CDE902549DED020BD7E70000000024
:100B70009C7500883CE4377E000000000000000007
:100B80000000F03FFFFF0F0010B52F499FED2C1B19
:100B90002DED020B84B0059820F000408842D8BFAC
:100BA0009DED040B2DDD2949884209D1049840B9F7
:100BB0004FF00100FFF72DFC00F0EEFC06B010BD79
:100BC00005DB9DED040B00F0DBFC06B010BD6846B4
:100BD0009DED040B00F0ECF810F0030004BF9DED58
:100BE000021B9DED000B0CD001280ED09DED021BC9
:100BF0009DED000B022817D0012000F029FC06B063
:100C000010BD00F0F1FA06B010BD9DED021B9DED88
:100C1000000B012000F01CFC51EC100B03F078FBE2
:100C200006B041EC100B10BD00F0DEFA51EC100BD9
:100C300003F06EFB06B041EC100B10BD000000008D
:100C40000000000000000000FB21E93F0000F07FF1
:100C50002DED020B019820F0004001909DED000B5E
:100C600002B070470000000010B52F499FED2C1B0B
:100C70002DED020B84B0059820F000408842DCBFC7
:100C800000209DED040B32DD2849884209D10498EB
:100C900040B94FF00100FFF7BCFB00F07DFC06B04F
:100CA00010BD05DB9DED040B00F06AFC06B010BD25
:100CB00068469DED040B00F07BF810F0030011D0A6
:100CC000012818D09DED021B9DED000B02281AD0C3
:100CD00000F08AFA51EC100B03F01AFB06B041EC5D
:100CE000100B10BD9DED021B9DED000B012000F0CF
:100CF000AFFB06B010BD9DED021B9DED000B00F09B
:100D000073FA06B010BD012000F0A2FB51EC100BED
:100D100003F0FEFA06B041EC100B10BD000000001D
:100D20000000000000000000FB21E93F0000F07F10
:100D300000B52DED048BB0EE409AF0EE609A83B0D2
:100D400051EC190B03F032FF41EC180B18EE100AAE
:100D500018EE901A8DED008B002818BF0120084373
:100D600020F00040C0F17F6000F1E040C00F14D0DF
:100D700019EE101A19EE900A8DED009B002918BF8C
:100D80000121084320F00040C0F17F6000F1E04005
:100D9000C00F04BF0120FFF73CFBB0EE480A03B0D0
:100DA000F0EE680ABDEC048B00BD000000000000FE
:100DB0002DE9F14F04462DED020B2DED088B8AB085
:100DC0009FEDE70B80ED020B139EE74826F00045F0
:100DD00085420ADC9DED120B002084ED000B0AB069
:100DE000BDEC088B03B0BDE8F08FE0489FEDE0ABB1
:100DF0009FEDE1BBA84247DDE14F9FEDE39B9FEDF7
:100E0000E48B9DED120B53EC1A2B51EC100B002EC2
:100E10001CDD03F097FF41EC100BBD4208D053ECF2
:100E20001B2B51EC100B03F08DFFC4E900010BE00C
:100E300053EC192B51EC100B03F084FF53EC182BDF
:100E400003F080FFC4E900010120C8E703F09EFA27
:100E500041EC100BBD4208D053EC1B2B51EC100B96
:100E600003F094FAC4E900010BE053EC192B51ECA8
:100E7000100B03F08BFA53EC182B03F087FAC4E93C
:100E800000014FF0FF30AAE7C348A84279DB9DED8F
:100E9000120B51EC100B01F083FD41EC180B9FED90
:100EA000C00B53EC102B03F041FD9FEDBF1B53EC27
:100EB000112B03F06BFA03F075FC074603F0CFFC2F
:100EC00041EC190B53EC1A2B03F030FD53EC182BAB
:100ED00003F060FE41EC180B53EC1B2B51EC190B8B
:100EE00003F024FDDFF8C8A241EC100B4FEA1558BF
:100EF0000125FA4453EC102B51EC180B03F022FFA0
:100F0000032DC4E900013DD0C1F30A5005EB4511A2
:100F1000A8EB00001139814234DA0AEB051BB0EE70
:100F200048AA9BED000BF0EE68AA53EC102B51EC95
:100F3000190B03F0FBFC41EC1B0B51EC1A0B53ECAF
:100F40001B2B03F0FFFE41EC180B51EC1A0B53EC7A
:100F5000182B03F0F7FE53EC1B2B03F0F3FE9BED75
:100F6000020B41EC1A0B53EC102B51EC190B03F054
:100F7000DDFC53EC1A2B03F0E5FE41EC100B6D1C6D
:100F8000B8E70EE0002EA8BF3846BFF628AF94EDB4
:100F9000000B51EC100B03F0BBF9C4E900017842DF
:100FA0001DE7C6F3130040F4801EC6F30A50A0F2FA
:100FB000F530471100F01F05C5F12000DDF848B0FD
:100FC00008900020069007900520EC467949002DF6
:100FD00007EB0002794408BF51F8221009D051F8FC
:100FE000223001EB8201AB404A68089922FA01F1F4
:100FF0001943A1FB0E26A1FB0B131A449A4234BFDE
:101000000123002303EB06080CEB8003D3E901A6C0
:101010000E448E4234BF0121002192448A4411B112
:10102000924502D903E0924501D2012100E000215E
:10103000C3E901A641444CF82010011EA0F10100B3
:10104000C4DC029800F10050850F0298DDE90367C7
:101050008000DDF8148003F002FC41EC1A0B3046EE
:1010600003F014FC9FED541B53EC112B03F05EFCBA
:1010700041EC1B0B384603F009FC9FED511B53EC70
:10108000112B03F053FC41EC180B404603F0FEFB20
:101090009FED4D1B53EC112B03F048FC41EC190B59
:1010A00051EC180B53EC192B03F070F953EC1B2B7C
:1010B00003F06CF953EC1A2B03F068F9CDE9080141
:1010C000002008909DED080B53EC1A2B51EC100BEF
:1010D00003F038FE53EC1B2B03F034FE53EC182BBB
:1010E00003F030FE53EC192B03F054FD9FED381B39
:1010F00053EC112B03F01AFC9FED370B41EC180B4E
:1011000053EC102B9DED080B51EC100B03F00EFC73
:1011100053EC182B03F03AF99FED310B41EC180B0F
:1011200053EC102B9DED080B51EC100B03F0FEFB64
:1011300053EC182B03F02AF941EC100B139810F024
:10114000004F06D06D4251EC100B03F0E1F841EC7A
:10115000100B284684ED000B41E600000000000063
:101160000000000000000000FB21E93F7CD90240A4
:1011700000004054FB21F93F3163621A61B4D03D55
:10118000FB21F93F000000000000601A61B4D03D6F
:101190007370032E8A19A33BFB2139410000000024
:1011A00083C8C96D305FE43F000000000000E03FED
:1011B0008A410000D8400000000000000000103EFE
:1011C000000000000000103C000000000000103A89
:1011D000182D4454FB21F93D3326A611460B113C32
:1011E00000000054FB21F93D10B52DED040B2DED51
:1011F000088B82B0B0EE419AF0EE619A0B9820F025
:1012000000449FED4BABB4F1795F11DA9DED0A0B11
:1012100051EC100B03F0C6FA002801BFB0EE4A0AE9
:10122000F0EE6A0A02B0BDEC088B04BF04B010BD3A
:101230009DED0A0B53EC102B51EC100B03F076FBD9
:1012400041EC180B3C480621B0EE480AF0EE680A63
:10125000784400F081F853EC182B51EC100B03F09C
:1012600065FB9DED0A0B41EC1B0B53EC192B51EC6C
:10127000100B03F05BFB41EC190B53EC1B2B51ECF7
:10128000180B03F053FB53EC192B03F05BFD9FEDA0
:101290002C0B41EC190B53EC102B51EC180B03F0F9
:1012A00045FB41EC100B2848844210DA53EC192B13
:1012B00051EC100B03F046FD53EC1A2B03F06AFCC3
:1012C00041EC100B02B0BDEC088B04B010BD1F4800
:1012D000A042BCBF9FED1E1B8DED001B06DBA4F5DD
:1012E00000100190002000909DED001B51EC100BB0
:1012F00053EC112B03F026FD9DED000B41EC180B78
:1013000053EC102B51EC1A0B03F01CFD41EC1A0BA3
:1013100053EC192B51EC180B03F014FD53EC1A2B62
:1013200003F038FC41EC100BCCE70000000000009B
:10133000000000000000F03FFC3D00000000000045
:10134000000000000000E03F3333D33F0000E93FDE
:10135000000000000000D23F70B504462DED028B66
:101360004D1E00EBC500B0EE408AF0EE608A90EDB5
:10137000000B35F0060017D053EC182B51EC100B76
:1013800003F0D4FA41EC100B6D1E04EBC50090ED98
:10139000001B51EC100B53EC112B02F0F7FF41EC4A
:1013A000100B35F00600E7D1022D36D0042D1CD0ED
:1013B000062D1CBFBDEC028B70BD53EC182B51ECFD
:1013C000100B03F0B3FA94ED0A1B53EC112B02F04F
:1013D000DDFF53EC182B03F0A9FA94ED081B53EC36
:1013E000112B02F0D3FF41EC100B53EC182B51ECF6
:1013F000100B03F09BFA94ED061B53EC112B02F03B
:10140000C5FF53EC182B03F091FA94ED040B53EC49
:10141000102B02F0BBFF41EC100B53EC182B51ECDE
:10142000100B03F083FA94ED021B53EC112B02F026
:10143000ADFF53EC182B03F079FA94ED001B53EC3D
:10144000112B02F0A3FFBDEC028B41EC100B70BD21
:1014500031B504462DED040B2DED0A8BB0EE41BAEB
:10146000F0EE61BA0B989DED0A0B20F00040B0F150
:10147000795F0DDA51EC100BFFF7C0FA042808BFB2
:1014800000F09AF89DED0A0BBDEC0A8B05B030BD5B
:1014900053EC102B51EC100B03F048FA41EC180BF5
:1014A0009DED0A0B53EC182B51EC100B03F03EFA98
:1014B00041EC190B2C48B0EE480AF0EE680A052101
:1014C0007844FFF749FF9FED2ACBB0EE40AAF0EE3B
:1014D00060AA9CB353EC1C2B51EC190B03F026FAB9
:1014E00041EC1C0B53EC1A2B51EC190B03F01EFAB8
:1014F0009FED210B41EC190B53EC102B51EC1B0B06
:1015000003F014FA53EC192B03F01CFC53EC182BCA
:1015100003F00CFA53EC1B2B03F014FC53EC1C2BC4
:1015200003F010FC9DED0A1B53EC112B03F032FB72
:10153000BDEC0A8B05B041EC100B30BDFFE753EC5E
:101540001A2B51EC180B03F0F1F953EC1C2B02F0A1
:101550001DFF53EC192B03F0E9F99DED0A1B53EC29
:10156000112B02F013FFE3E7843C000000000000B1
:10157000495555555555C5BF000000000000E03FD6
:1015800010B553EC102B51EC100B02F0FFFE41ECA8
:10159000100B10BD000000009FED050B10B553ECC3
:1015A000102B51EC100B02F0A5FF41EC100B10BDFD
:1015B00000000000000000009FED050B10B553EC8B
:1015C000102B51EC100B03F0B1F941EC100B10BDD6
:1015D000000000000000001000B58BB004A802F06D
:1015E00054FD01A802F04FFBFFF778F8E448E54905
:1015F0000860002008710846FEF7F8FF002001236C
:1016000002220A210090E04801F0DAFB04220A21BC
:10161000DD4801F007FC0020012302220B2100908D
:10162000D94801F0CDFB04220B21D74801F0FAFB89
:10163000D648049004A9D64802F038FD00200123C2
:1016400002220A210090D34801F0BAFB08220A21A5
:10165000D04801F0E7FB0020012302220B2100907B
:10166000CC4801F0ADFB08220B21CA4801F0DAFB9F
:101670004FF47A40049004A9C74802F017FD0120F6
:101680000023022206210090BF4801F099FB0120AF
:101690000023022207210090BB4801F091FB0722A2
:1016A0000621B94801F0BEFB07221146B64801F0F9
:1016B000B9FB00200346022203210090B24801F04A
:1016C0007FFB0020034602220F210090B34801F067
:1016D00077FB00200346022206210090AF4801F06C
:1016E0006FFB00200346022207210090AB4801F067
:1016F00067FB0020034602220B210090A84801F05E
:101700005FFB00200346022209210090A44801F05B
:1017100057FB002003460222072100909D4801F05C
:101720004FFB00200346022206210090994801F059
:1017300047FB01220321944801F074FB01220F2191
:10174000964801F06FFB02220621944801F06AFBE3
:1017500002220721914801F065FB01220B219048EC
:1017600001F060FB012209218D4801F05BFB03229F
:101770000721884801F056FB03220621854801F025
:1017800051FB4FF0804002F06BFB864802F068FB93
:10179000854802F065FB854802F062FB00200346A5
:1017A00002220C210090824801F00AFB002003462F
:1017B00002220D2100907E4801F002FB002003462A
:1017C00002220E2100907A4801F0FAFA0020034626
:1017D00002220F210090764801F0F2FA02220C2139
:1017E000734801F01FFB02220D21714801F01AFB22
:1017F00002220E216E4801F015FB02220F216C48D7
:1018000001F010FB0020034601220E2100906148E8
:1018100001F0D6FA0020034601220F2100905D4816
:1018200001F0CEFA0020034601220A2100905C4814
:1018300001F0C6FA0020034601220E21009058480C
:1018400001F0BEFA01220E21524801F01AFB0122DA
:101850000F21504801F015FB01220A21504801F0E8
:1018600010FB01220E214E4801F00BFB4AF2104002
:1018700002900220ADF8040001A94E4802F012FACD
:101880004D4B0FCBCDE90923CDE907014BA00068F3
:10189000069006AB07AA01A9464802F0F7FA4AF2F9
:1018A000104002901420ADF8040001A9444802F051
:1018B000F9F90121424802F077FB4AF21040029008
:1018C0001420ADF8040001A93E4802F0EBF93D48B0
:1018D00002F0AEFB01213B4802F066FB012003460B
:1018E00002460C210090284801F06AFA01220C21DE
:1018F000254801F0C6FA284802F0C2FB244802F04D
:10190000BFFB1F48FEF76CFE4FF0804002F0ADF9C0
:10191000244802F0AAF9244802F0A7F9234802F06B
:10192000A4F9244802F0A1F9254802F09EF92548BF
:1019300002F09BF92520FFF779F83420FFF776F8BD
:101940002220FFF773F83620FFF770F83220FFF7F8
:101950006DF800212520FFF777F801213420FFF7EB
:1019600073F802212220FFF76FF804213620FFF7D9
:101970006BF803213220FFF767F862B60BB000BDA9
:1019800000580040800000200004024040420F0048
:10199000004C0040000802400010014000000240DE
:1019A000001002400004004000000140000401401B
:1019B000000C024000080040105000080101010125
:1019C00000100040000C004010B52DED068B90B0CB
:1019D0000CA801210322334BCDE900210290042100
:1019E000314801F017FB08A8012103222D4BCDE956
:1019F0000021029004212D4801F00CFB04A80121D4
:101A00000B460422CDE9001008A90CA801F072FBD6
:101A100003AA042104A801F0CAFB039803F07CFA8E
:101A200041EC1A0BB0EE4A0AF0EE6A0AFFF710F921
:101A3000B0EE409AF0EE609A9FED1D0B53EC102B28
:101A400051EC190B03F070F81DD29DED030ADFED88
:101A50001A0A80EE801A11EE104A204603F05CFA52
:101A600041EC1A0BB0EE4A0AF0EE6A0AFFF7F0F802
:101A7000B0EE409AF0EE609A51EC190B02F054FC73
:101A800008EE100A01E0B7EE008A0C4BB0EE480AEF
:101A90000122042104A801F00BFB10B0BDEC068B61
:101AA00010BD000030030020A4000020D40000205E
:101AB00000000040253A3B402AD1D9413C03002098
:101AC00010B52DED068B88B04A4890ED020A10EE55
:101AD000104A204603F020FA41EC190BB0EE490AF7
:101AE000F0EE690AFFF750F8B0EE408AF0EE608A37
:101AF00051EC180B02F018FC0490204603F00CFA8D
:101B000041EC1A0BB0EE4A0AF0EE6A0AFFF7ACF8A5
:101B1000B0EE409AF0EE609A51EC190B02F0F8FB2F
:101B200041EC180B02F000FC0590204603F0F4F99C
:101B300041EC190BB0EE490AF0EE690AFFF794F890
:101B4000B0EE408AF0EE608A51EC180B02F0ECFB2C
:101B50000690204603F0E0F941EC190BB0EE490A7B
:101B6000F0EE690AFFF710F8B0EE408AF0EE608AF6
:101B700051EC180B02F0D8FB07901F4801210222FC
:101B80001E4BCDE900210290114604A801F042FA53
:101B90001A4890ED020A184880ED020A154890EDA7
:101BA000000A1548D0ED000A9FED151A00EE810AD3
:101BB000104880ED000A90ED010A0F48D0ED010AAF
:101BC0009FED0F1A00EE810A0A4880ED010A90EDA0
:101BD000020A0948D0ED020A9FED091A00EE810AB7
:101BE000044880ED020A083001F048FB08B0BDEC63
:101BF000068B10BD0C0300200003002018030020FA
:101C00000AD7233C0EB5064801210422054BCDE935
:101C1000002102900321044801F0FCF90EBD0000F0
:101C200018030020E00200200401002070B52DED13
:101C30000A8B04460D46764800EB840090ED000ABE
:101C400020EE000A72480C3800EB8400D0ED000A48
:101C50006F480C3800EB840090ED001A00EEC10ACA
:101C60006B484830005700EE900AF8EEE00A20EE8C
:101C7000200A05EB8400D0ED000AB0EE001A60EEF9
:101C8000810A80EE201AB0EE418A614800EB8400A0
:101C900090ED000A20EE000A5D480C3000EB840055
:101CA000D0ED000A5A480C3000EB840090ED001A89
:101CB00000EEC10A56484830005700EE900AF8EE90
:101CC000E00A20EE200A05EB8400D0ED000AB0EE19
:101CD000001A60EE810A80EE201AF0EE418A4C482C
:101CE000243000EB840080ED008A49483C3000EB52
:101CF000840090ED000A30EE680A4548303000EB71
:101D0000840080ED000A4248243000EB840090ED0E
:101D1000000A10EE101A084603F0FEF841EC1B0B07
:101D2000B0EE4B0AF0EE6B0AFEF792FFB0EE409A6F
:101D3000F0EE609A3648303000EB840090ED000AF7
:101D400010EE101A084603F0E7F841EC1B0BB0EE5A
:101D50004B0AF0EE6B0AFEF77BFFB0EE40AAF0EE06
:101D600060AA53EC192B51EC1A0B02F0A3FD4CD2D4
:101D70002748183800EB840090ED000A24483C30D6
:101D800000EB8400D0ED000A20EE200A10EE101ABD
:101D9000084603F0C1F841EC1C0BB0EE4C0AF0EE23
:101DA0006C0AFEF7C5FFB0EE40AAF0EE60AA184933
:101DB0004831085702F053FD41EC1B0B53EC1A2B32
:101DC00002F0B4FD41EC190B02F0AEFA01461048E6
:101DD00040F824103C3000EB840090ED000AF0EE57
:101DE000000A80EE201A0A48243000EB840080EDBF
:101DF000001A0748243000EB840090ED000A0448E4
:101E0000303000EB840080ED000ABDEC0A8B70BD21
:101E100094020020F0B589B0FE4890F8200008B97F
:101E200009B0F0BDFB4800780D287BD00ADC0D28F6
:101E300024D2DFE800F0231F233D5C7B98BFE8F04D
:101E4000EFEEED00B0286ED00CDCA0286CD004DCE6
:101E50000E286AD00F2811D16BE1A1287ED0A228CC
:101E6000F9D184E2B1380528E2D2DFE800F0EEEDE6
:101E7000ECEBEA00E748C07F042800D0ACE2E5487C
:101E8000407845280BD1E3488078432807D1E148C2
:101E9000C078482803D1DF4800794F2800D09BE262
:101EA000DDA4DC4908780422214601F003FB93E21B
:101EB000D848C07F052800D08EE2D9A5D54908783A
:101EC0000222294601F0F6FAD2484478601EC4B2D4
:101ED000D04AD2F8022000EE102AD24A02EBC40205
:101EE0001179D04A52F8340002F062F874E2C9481D
:101EF000C07F012800D06FE2C9A5C6490878022238
:101F0000294601F0D7FAC3484478601EC4B2C64AD5
:101F100002EBC4021179C44A52F83400012200F0E5
:101F2000B0FF59E220E15EE136E1E8E0B948C07F68
:101F3000012800D050E2BAA5B64908780222294605
:101F400001F0B8FAB3484478601EC4B2B64A02EB56
:101F5000C4021179B44A52F8340000E02AE10022A8
:101F600000F08FFF38E2AB48C07F052800DA33E28B
:101F7000A8484578C17FA800401C814200D02BE2D0
:101F8000A7A6A44908780222314601F093FA012459
:101F90000DE0611E9F48801C042202FB01000068C6
:101FA00000EE100A204601F043FB601CC4B2AC42B4
:101FB000EFDD11E29748C07F012800D00CE2954880
:101FC0004478042C00DD07E22746B800FEF770F9DC
:101FD000054600260AE0954800EB860090ED000AD1
:101FE00005EB860080ED000A701CC6B2A642F2DB4B
:101FF000A1060A0E87490878294601F05BFA2846AF
:10200000FEF785F9E8E18348C07F0C2804D0E3E1BE
:1020100064E051E035E019E081A47E4908780222AD
:10202000214601F047FA7B48D0F80100804908605A
:102030007848D0F8050048607648D0F809008860F4
:10204000CAE17BE15EE144E11AE100E17148C07F51
:1020500000B1C1E100240BE0764800EB840090ED74
:10206000000A06A800EB840080ED000A601CC4B2E0
:10207000032CF1DB674908780C2206A901F01AFA53
:10208000AAE16448C07F00B1A6E100240BE06A48E1
:1020900000EB840090ED000A06A800EB840080EDC0
:1020A000000A601CC4B2032CF1DB5A4908780C22E8
:1020B00006A901F0FFF98FE15648C07F032800D040
:1020C0008AE157A4534908780222214601F0F2F927
:1020D000504A5188507801F023FB7DE14D48C07F84
:1020E000012800D078E14B49487808A900F01CFD90
:1020F00048490878042208A901F0DCF96CE1454858
:10210000C07F0C2800D067E145A44249087802222C
:10211000214601F0CFF93F48D0F801004749086057
:102120003C48D0F8050048603A48D0F8090088607B
:1021300052E13848C07F00B14EE100240BE03F4837
:1021400000EB840090ED000A06A800EB840080ED0F
:10215000000A601CC4B2032CF1DB2E4908780C2263
:1021600006A901F0A7F937E12A48C07F012800D06D
:1021700032E12BA4274908780222214601F09AF97E
:1021800024484078002803DD01202D49487002E0F2
:1021900000202B4948701FE11E48C07F00B11BE1A1
:1021A0002748807808901B490878012208A901F087
:1021B00081F911E11748C07F012800D00CE11548D2
:1021C0004478022C00DD2BE604EBC4001D4901EB32
:1021D000800090F8200008900E490878012208A994
:1021E00001F068F9F8E00B48C07F012800D0F3E067
:1021F0000848447804EBC400124901EB80022146F0
:10220000002001F0D3F906A50249087802222946E8
:102210001AE00000570200204543484F000000002C
:102220004F4B00001000002030000020E002002092
:102230003003002018030020240300200C0300209A
:10224000A10000204C03002001F034F9C4E06648EE
:10225000C07F012800D0BFE06348447804EBC4008D
:10226000624901EB80022146022001F09FF9AFF2A2
:1022700050055D4908780222294601F01BF9ABE0C0
:102280005948C07F022800D0A6E057484478012C66
:1022900000D1C5E5544885784DB104EBC4005349DD
:1022A00001EB80022146042001F080F908E004EBF4
:1022B000C4004E4901EB80022146052001F076F969
:1022C000AFF2A406484908780222314601F0F2F83C
:1022D00082E04548C07F012800D07DE04248447834
:1022E00004EBC400414901EB80022146032001F0C8
:1022F0005DF9AFF2D4053C4908780222294601F085
:10230000D9F869E03848C07F012800D064E0364839
:102310004478012C00D183E504EBC400334901EB80
:1023200080022146062001F041F9AFF20C152E493A
:1023300008780222294601F0BDF84DE02A48C07F06
:10234000012800D048E02848447804EBC40027491D
:1023500001EB80022146012001F028F9AFF240157F
:10236000214908780222294601F0A4F834E01E48E9
:10237000C07F182800D02FE000241DE01A48401C20
:10238000042101FB0400006806A941F82400164856
:10239000401C042101FB0400C06803A941F824008B
:1023A000134800EB840090ED000A684600EB8400BF
:1023B00080ED000A601CC4B2032CDFDB6A4603A96F
:1023C00006A801F0C9FAAFF2A81507490878022259
:1023D000294601F06FF800BF00BF0020024981F8D4
:1023E000200000BF1CE50000570200204C03002025
:1023F0002C5000083EB500240BE01D4800EB840083
:1024000090ED000A684600EB840080ED000A601C35
:10241000C4B2032CF1DB9DED020ADFED160AB4EE27
:10242000E00AF1EE10FA07DD9DED020ADFED120A77
:1024300030EE600A8DED020A002405E06946204670
:1024400000F020F8601CC4B2032CF7DB0B480078C6
:1024500048B90A48407830B90848807818B900204F
:102460000749887002E00120054988703EBD0000E0
:1024700024030020DB0F4940DB0FC9407802002015
:10248000A100002070B52DED068B04460D46754861
:10249000005D00287DD0744800EB840090ED000AB8
:1024A00010EE101A084602F037FD41EC180B6D488B
:1024B000583000EB840090ED000A05EB8400D0ED6D
:1024C000000A30EE600A10EE101A084602F024FDF1
:1024D00041EC1A0BB0EE4A0AF0EE6A0AFEF7B8FBBE
:1024E000B0EE409AF0EE609A53EC182B51EC190BB9
:1024F00002F0E0F90CD29FED5D0A5D4800EB84002C
:1025000080ED000A002057490855BDEC068B70BDD0
:102510005448403000EB840090ED000A10EE101A91
:10252000084602F0F9FC41EC1A0BB0EE4A0AF0EE54
:102530006A0AFEF78DFBB0EE408AF0EE608A05EB8A
:10254000840090ED000A10EE101A084602F0E4FC38
:1025500041EC1A0BB0EE4A0AF0EE6A0AFEF778FB7D
:10256000B0EE409AF0EE609A53EC182B51EC190B38
:1025700002F0A0F939D23B481C3000EB840090ED0A
:10258000000A10EE101A084602F0C6FC41EC1A0BC5
:1025900000E065E0B0EE4A0AF0EE6A0AFEF758FB8A
:1025A000B0EE408AF0EE608A324800EB840090ED95
:1025B000000A10EE101A084602F0AEFC41EC1A0BAD
:1025C000B0EE4A0AF0EE6A0AFEF742FBB0EE409A1D
:1025D000F0EE609A53EC182B51EC190B02F06AF9EB
:1025E00003D201201F4908558FE71E484C3000EBED
:1025F000840090ED000A10EE101A084602F08CFCE0
:1026000041EC1A0BB0EE4A0AF0EE6A0AFEF720FB24
:10261000B0EE409AF0EE609A05EB840090ED000A6F
:1026200010EE101A084602F077FC41EC1A0BB0EEDF
:102630004A0AF0EE6A0AFEF70BFBB0EE408AF0EEB3
:10264000608A53EC192B51EC180B02F033F903D2CA
:1026500002200449085558E703200249085554E769
:1026600000BF52E778020020205000080000000060
:10267000300300201803002010B52DED048B82B02C
:102680000446207B012837D16078401C6070207898
:1026900001A900F07DFA28B90320207302B0BDEC37
:1026A000048B10BD94ED010ADDED010A30EE600AE5
:1026B00010EE101A084602F02FFC41EC190BB0EE98
:1026C000490AF0EE690AFEF7C3FAB0EE408AF0EE6E
:1026D000608A9FED0A0B53EC102B51EC180B02F0A3
:1026E000E9F802D202202073D8E76078962802DB4E
:1026F00004202073D2E700BF00BFCFE70000000036
:102700000000F03F30B52DED068B91B004460DA8CA
:10271000012103222346CDE9002102900421304803
:1027200000F078FC09A8012103222346CDE900210D
:10273000029004212B4800F06DFC05A801210B46F6
:102740000422CDE9001009A90DA800F0D3FC04AAC9
:10275000042105A800F02BFD049802F0DDFB41ECFC
:102760001A0BB0EE4A0AF0EE6A0AFEF771FAB0EE02
:10277000409AF0EE609A9FED1C0B53EC102B51EC3D
:10278000190B02F0D1F91DD29DED040ADFED180AF4
:1027900080EE801A11EE105A284602F0BDFB41EC83
:1027A0001A0BB0EE4A0AF0EE6A0AFEF751FAB0EEE2
:1027B000409AF0EE609A51EC190B01F0B5FD08EE6D
:1027C000100A01E0B7EE008A2346B0EE480A012263
:1027D0000321204600F06CFC11B0BDEC068B30BD2F
:1027E000A4000020D400002000000040253A3B4017
:1027F0002AD1D941024800680249086070470000A8
:1028000094000020900000202DE9F84307460C4674
:10281000E06990F80080B8F10A0F26D2DFE808F0EE
:1028200005080B0E1114171A1D20267865881CE068
:102830002678A58819E0A679658916E0A679258904
:1028400013E0A679A58910E0A67B258A0DE0A67B7A
:10285000658A0AE0267D258B07E0267DE58A04E06F
:10286000052084F82000BDE8F88300BF69463046A3
:1028700000F08EF940B9022084F820001B4901EBDA
:10288000071000F00BFEEEE72946304600F07AFF15
:1028900040B9022084F82000144901EB071000F031
:1028A000FDFDE0E7114901EB071000F0F7FD0F48CF
:1028B00000EB0710067000EE105AB8EE400A0B4805
:1028C00000EB071080ED010A9DED000A074800EBC0
:1028D000071080ED020A0120044901EB071108737B
:1028E000034801F0C2F900BFBDE70000B8030020B3
:1028F000000C004070B505460C4694F820000128F5
:1029000048D1254800EB0510067B062E40D2DFE8B3
:1029100006F0030B0F242D3621462846FFF774FFDF
:102920001E4801F0A2F933E01C4801F09EF92FE0A7
:10293000E069401CE061E0690078092808D10020C6
:1029400084F82000144901EB051000F0A7FD03E016
:1029500021462846FFF758FF1AE0022084F820009D
:102960000D4901EB051000F099FD11E0032084F8FA
:102970002000094901EB051000F090FD08E004205B
:1029800084F82000044901EB051000F087FD00BF2A
:1029900000BF00BF70BD0000B8030020000C004065
:1029A00082B0CDE9000121F0004001909DED000BC7
:1029B00002B051EC100B704710B5044600F020F93E
:1029C00008B9002010BD06480078A04201D00020C0
:1029D000F8E70348807808B10020F3E70120F1E729
:1029E0005001002030B5024613460C469C4201D3EC
:1029F000E01A30BD181B024D2D78281AF9E70000A7
:102A0000A00000202DE9F0414448D0F80080A9271B
:102A100077E098F80000FA286ED10121404600F0D6
:102A200043FA0078AF2867D10221404600F03CFA13
:102A300005462878052809DA0121404600F034FAD5
:102A40000546364805600020BDE8F081344801683D
:102A50004046FFF7C7FF297888424BD3287838448F
:102A6000C7B20121284600F01FFA044620782D49FC
:102A7000087020783844C7B20121204600F014FACB
:102A8000044600202749C877002612E0217825480F
:102A9000401C815520783844C7B22248C07F401C72
:102AA0002049C8770121204600F0FEF90446701C39
:102AB000C6B22878401FB042E8DC2078B8420CD17A
:102AC0000120184981F820000121204600F0ECF98E
:102AD0000446124804600220B6E70121204600F0B7
:102AE000E3F9044600200F4981F820000B480460F8
:102AF0000120A9E70320A7E70121404600F0D4F90F
:102B00008046074801684046FFF76CFF052880D2E1
:102B10000248C0F80080032096E7000098000020DB
:102B20009C00002057020020F8B506460D4614A070
:102B3000006800906B4602221146304600F004FD0A
:102B40003046FFF739FF08B90020F8BD0D48047979
:102B50004FF6FF7000EA04240A48C078044300EEF0
:102B6000104AB8EE400ADFED080A20EE200ADFED39
:102B7000070A80EE201A85ED001A0120E5E7000023
:102B800024020000500100200000964300C07F4452
:102B900070B505460E46002408E031462846FFF78A
:102BA000C3FF08B1012070BD601CC4B20A2CF4DB65
:102BB0000020F8E708480068401C074908600846FC
:102BC00001680648814202D3203803490860024860
:102BD0000068007870470000900000208F010020FE
:102BE00005480168054802688A4201D3501A7047B7
:102BF000881AC0F12000FAE790000020940000201D
:102C000070B50024FFF7F6FD07E0601C84B244F6BF
:102C10002060844201DD002070BDFFF7E1FF042841
:102C2000F3D30024FFF7C6FFFFF7C4FFFFF7C2FF8F
:102C300029490870FFF7BEFF2749487008464078C9
:102C40001B2801DD0020E7E707E0601C84B244F6A2
:102C50002060844201DD0020DEE7FFF7C1FF1E494E
:102C600049788842F1D3FFF7A5FF1B4988700846D1
:102C700080781A490870002306E0FFF79BFF164989
:102C8000C91CC854581CC3B213484078801E9842CF
:102C9000F3DC114800781049497808440E498978D6
:102CA0000844C5B2002306E00B48C01CC05C2844A1
:102CB000C5B2581CC3B208484078801E9842F3DC65
:102CC000E843C5B2FFF776FF0646B54201D00020C3
:102CD000A2E70120A0E70000500100208C000020A6
:102CE0002D49884206D12D49096841F001012B4A3E
:102CF000116070472A49884206D12849096841F085
:102D00000201264A1160F4E72649884206D1234988
:102D1000096841F00401214A1160EAE7224988422A
:102D200006D11E49096841F008011C4A1160E0E71C
:102D30001E49884206D11949096841F01001174A15
:102D40001160D6E71A49884206D11449096841F052
:102D50002001124A1160CCE71649884206D10F497A
:102D6000096841F040010D4A1160C2E712498842EA
:102D700006D10A49096841F08001084A1160B8E7A4
:102D80000E49884206D10549096841F48071034A19
:102D90001160AEE700BFACE70000024030380240EF
:102DA0000004024000080240000C024000100240F3
:102DB0000014024000180240001C024000200240A3
:102DC000F0B504460D461646059F2046FFF788FFDE
:102DD0000DB9680008B1012100E000212068884396
:102DE00020602068690006FA01F108432060E0686D
:102DF0006A00032191408843E060E068690007FAB7
:102E000001F10843E060012E01D0022E09D1616872
:102E10000120A84081436160606803FA05F108431E
:102E20006060F0BD30B503460C4615461846FFF706
:102E300057FF186862000221914008431860072C70
:102E40000CDC186AA2000F21914088431862186AAE
:102E5000A10005FA01F10843186211E0072C0FDD0B
:102E6000586AA4F108018A000F21914088435862F2
:102E7000586AA4F10801890005FA01F10843586273
:102E800030BD30B53AB9836901F110040125A54080
:102E90002B43836130BD012A04D1836901248C4016
:102EA0002343836100BFF5E730B502461046002397
:102EB00008E0401C054C064D2D782C44844200D877
:102EC00002485B1C8B42F4D330BD00008F01002010
:102ED000A0000020112033490870F5208880692067
:102EE00048800220887114212E48418140F21D1132
:102EF00001813C2181810B202A4988739321294833
:102F0000418246210182152026490875462125481F
:102F1000C1820021018324482249C861122081F81E
:102F20002400F0211F4801858C21C184032180F8F1
:102F30002A104FF49171C18514218185FA210186EF
:102F4000194901641020174981F848008C2115485F
:102F5000A0F84C104FF48271A0F84A10012180F8BB
:102F60004E1040F22711A0F852101921A0F850106D
:102F7000F521A0F854100A2180F856109721A0F8E6
:102F80005A10E621A0F85810142180F85C10F521A1
:102F9000A0F85E104FF49671A0F8601002494166E7
:102FA000704700004C0300204B0100200020144912
:102FB0000870FEF711FBFFF78DFF002011494870E4
:102FC0001DE0FFF71FFD20B1012808D0022812D113
:102FD0000BE00D480068401C0B4908600CE00B48F2
:102FE0000068401C0949086006E009480068401C68
:102FF0000749086000BF00BF00BFFEF70BFFE0E716
:103000000F000020A1000020080000200400002084
:10301000000000202DE9F04306460F469C46DDE9FE
:103020000784099D424504D0DFED200AC5ED000A62
:1030300039E0002035E000212DE0DFED1C0AB0EE84
:10304000600A002319E002FB00F906EB890909EB8D
:10305000830999ED001A04FB03F90CEB890909EBCC
:103060008109D9ED001AF0EE400A41EE210AB0EED6
:10307000600A03F1010909F0FF039342E3DB04FB5B
:1030800000F905EB890909EB810989ED000A01F1D5
:10309000010909F0FF01A142CFDB00F1010909F0AC
:1030A000FF00B842C7DBBDE8F0830000000000006D
:1030B00070B504460D46002019E0002113E000FB26
:1030C00002F604EB860606EB8106D6ED000A60EEFA
:1030D000800A00FB02F603EB860606EB8106C6EDCE
:1030E000000A4E1CF1B29142E9DB461CF0B2A84244
:1030F000E3DB70BDF0B504460D46DDE90576002F33
:103100002ADB002025E000211DE000FB03FC04EB8E
:103110008C0C0CEB810C9CED000A00FB03FC05EB16
:103120008C0C0CEB810CDCED000A30EE200A00FB6D
:1031300003FC06EB8C0C0CEB810C8CED000A01F10E
:10314000010C0CF0FF019942DFDB00F1010C0CF0E7
:10315000FF009042D7DB29E0002025E000211DE0A0
:1031600000FB03FC04EB8C0C0CEB810C9CED000AC7
:1031700000FB03FC05EB8C0C0CEB810CDCED000A76
:1031800030EE600A00FB03FC06EB8C0C0CEB810CB0
:103190008CED000A01F1010C0CF0FF019942DFDB1C
:1031A00000F1010C0CF0FF009042D7DBF0BD2DE9DF
:1031B000F0412DED068B04460F46154694ED000AAE
:1031C00010EE101A084601F0A7FE41EC190BB0EE04
:1031D000490AF0EE690AFDF73BFDB0EE408AF0EED9
:1031E000608A51EC180B01F09FF8286001263EE040
:1031F00004EB860090ED000A10EE101A084601F06C
:103200008BFE41EC1A0BB0EE4A0AF0EE6A0AFDF7AB
:103210001FFDB0EE408AF0EE608A95ED000A10EED8
:10322000101A084601F078FE41EC190B53EC182BEC
:1032300001F040FB19D204EB860090ED000A10EE7D
:10324000101A084601F068FE41EC190BB0EE490A6D
:10325000F0EE690AFDF7FCFCB0EE408AF0EE608A01
:1032600051EC180B01F060F82860701CC6B2781E93
:10327000B042BDDABDEC068BBDE8F08190ED000AEE
:10328000DFED0F0AB4EEE00AF1EE10FA08DB90ED84
:10329000000ADFED0B0A30EE600A80ED000A0EE056
:1032A00090ED000AB5EEC00AF1EE10FA07D290EDEB
:1032B000000ADFED030A30EE200A80ED000A7047B5
:1032C000DB0FC94001200E4B1B68C3F30312082A11
:1032D00000DA70470220002105E04FF6FF7303EA91
:1032E00040004B1CD9B2A2F108038B42F5DC0B2A3B
:1032F00003DD4FF6FF7303EA400000BFE9E700007B
:10330000083802400120094B1B68C3F38222042ABB
:1033100000DA70470220002103E04306180E4B1C20
:10332000D9B2131F8B42F8DC00BFF2E70838024025
:103330000120094B1B68C3F34232042A00DA7047AC
:103340000220002103E04306180E4B1CD9B2131FC4
:103350008B42F8DC00BFF2E7083802401CB50024BD
:1033600011E0454850F824000088A0F5EA403038C4
:1033700000B22DF8140047F230503F4951F82410A4
:103380000880601CC4B2042CEBDB00242CE03DF967
:103390001400400000EE100AB8EEC00ADFED370A54
:1033A00020EE200ADFED360A80EE201A354800EBC9
:1033B000840080ED001A0CB1032C13D13DF91400E8
:1033C000400000EE100AB8EEC00ADFED2C0A20EE35
:1033D000200ADFED2D0A80EE201A2A4800EB840037
:1033E00080ED001A601CC4B2042CD0DB254890ED9F
:1033F000010AB1EE400A80ED010A90ED020AB1EE39
:10340000400A80ED020A002414E0204800EB84000A
:1034100090ED000A1B4800EB8400D0ED000A9FED00
:103420001C1A00EE810A194800EB840080ED000AA6
:10343000601CC4B2042CE8DBFEF7E4FB002414E0BB
:10344000144800EB840090ED000A134800EB840060
:10345000D0ED000A9FED0E1A00EE810A0D4800EB38
:10346000840080ED000A601CC4B2032CE8DB09482C
:103470000830FFF703FF1CBD70000020DB0F494040
:10348000B81E8544E00200203D0A5744F0020020A7
:103490000AD7233C24030020180300200021417098
:1034A00001709FED030A80ED010A0173704700006F
:1034B000000000002DE9F04705460E461746781D2E
:1034C00000F0FF0808F1F400284400F0FF09FA2199
:1034D000114800F0EDFEFA210F4800F0E9FE4146E8
:1034E0000D4800F0E5FE29460B4800F0E1FE0024FF
:1034F00009E0315D084800F0DBFE305D484400F033
:10350000FF09601CC4B2BC42F3DB4946024800F02C
:10351000CFFEBDE8F08700000010014010B5044662
:1035200000220C210648FFF7ACFC2146054800F0BC
:10353000D5FE01220C210248FFF7A3FC10BD0000BC
:1035400000040240004C00402DE9F04706460F46BB
:1035500014469846FF20FFF7E1FFFF20FFF7DEFF4C
:103560003046FFF7DBFFB146A11CC8B2FFF7D6FF1C
:103570003846FFF7D3FFA01C3844484400F0FF0949
:1035800000250AE018F80500FFF7C8FF18F8050045
:10359000484400F0FF09681CC5B2A542F2DB6FEA9F
:1035A0000901C8B2FFF7BAFFBDE8F08770B505465C
:1035B0000E461446032E00DD70BD94F8200001284D
:1035C00000D1F9E7072D1AD2DFE805F004070A0D4C
:1035D000101316000E48E06111E00E48E0610EE0A5
:1035E0000D48E0610BE00D48E06108E00C48E06147
:1035F00005E00C48E06102E00B48E06100BF00BF5D
:10360000012084F82000094800F02FFB00BFD3E719
:1036100034010020390100203E0100204201002039
:10362000440100204601002048010020000C004019
:1036300010B52DED028B0446B0EE408A042C02DD5D
:10364000BDEC028B10BD601EC4B2B5EEC08AF1EEB7
:1036500010FA0ADB214A02EBC40211791F4A52F820
:1036600034000122FFF70DFC0DE01C4A02EBC402FE
:1036700011791A4A52F834000022FFF702FCB1EE29
:10368000480AB0EE408A9FED160AB4EEC08AF1EE09
:1036900010FA04DB9FED120AB0EE408A08E0B5EEA6
:1036A000C08AF1EE10FA03D29FED0E0AB0EE408A06
:1036B000DFED0D0A9FED0D0AF0EE408A48EE208AFC
:1036C0000B4A02EBC4021179094A52F83400B0EEF9
:1036D000680A00F06DFC00BFB2E700003000002077
:1036E0002AD1D941000000005CB3F03CCDCCCC3DE8
:1036F0001000002010B500240CE0084901EB840103
:10370000D1ED000AB0EE600A611CC8B2FFF790FF6D
:10371000601CC4B2042CF0DB10BD00003C03002090
:103720002DE9F84380460C46B4F5967F02DD002073
:10373000BDE8F88300EE104AB8EE400ADFED0F0A4C
:1037400020EE200ABCEEC00A10EE100A85B22E0A46
:10375000EFB20BA0006800908DF801708DF8026048
:103760006B46032211464046FFF7EEFE4046FFF748
:1037700023F908B90020DBE70120D9E7713D5A4061
:103780001E00000070B505460E46002408E03146D4
:103790002846FFF7C5FF08B1012070BD601CC4B208
:1037A0000A2CF4DB0020F8E710B52DED068B002481
:1037B000C3E06548005D30B1012805D0022857D02C
:1037C000032800D160E0B5E0604800EB840090ED94
:1037D000000A5D48001D00EB8400D0ED000A9FED5B
:1037E0005C1A00EE810A594800EB840080ED000A63
:1037F00055481C3000EB840090ED000A10EE101AC2
:10380000084601F089FB41EC1A0BB0EE4A0AF0EED3
:103810006A0AFDF71DFAB0EE408AF0EE608A4B4866
:1038200000EB840090ED000A10EE101A084601F03B
:1038300073FB41EC1A0BB0EE4A0AF0EE6A0AFDF790
:1038400007FAB0EE409AF0EE609A53EC182B51EC68
:10385000190B01F069F90AD23B481C3000EB8400D7
:1038600090ED000A394800EB840080ED000A61E029
:1038700035481C3000EB840090ED000A334800EB23
:10388000840080ED000A55E02F48343000EB8400BE
:1038900090ED000A10EE101A084601F03DFB41ECD5
:1038A0001A0BB0EE4A0AF0EE6A0AFDF7D1F9B0EE53
:1038B000408AF0EE608A274800EB840090ED000A11
:1038C00010EE101A084601F027FB41EC1A0BB0EE7F
:1038D0004A0AF0EE6A0AFDF7BBF9B0EE409AF0EE44
:1038E000609A53EC182B51EC190B00F0E3FF0ED249
:1038F0001548283000EB840090ED000A134800EBD7
:10390000840080ED000A00200F49085512E00F489E
:1039100000EB840090ED000A0B48343000EB84008B
:10392000D0ED000A30EE600A084800EB840080ED1C
:10393000000A00BF00BF601CC4B2032CFFF639AF01
:10394000BDEC068B10BD0000780200203003002083
:103950000AD7233C180300202DE9F0412DED048BFC
:1039600005460E4617463046FEF7CCFE3A4631462F
:10397000284600F021F9002402E19FED850A8548E0
:1039800000EB840080ED000A05EB840090ED000A56
:10399000B5EEC00AF1EE10FA72D006EB840090ED9D
:1039A000000AB5EEC00AF1EE10FA69DD05EB8400FD
:1039B00090ED000AB5EEC00AF1EE10FA17DD06EB45
:1039C000840090ED000A744800EB840080ED000A4A
:1039D00007EB840090ED000A6F48183800EB840074
:1039E00080ED000A01216C48483001551AE006EBD1
:1039F000840090ED000AB1EE400A674800EB8400B5
:103A000080ED000A07EB840090ED000AB1EE400A59
:103A10006148183800EB840080ED000AFF215E4801
:103A20004830015505EB840090ED000A5A483C30BF
:103A300000EB840080ED000A022C7CD105EB8400B1
:103A400090ED000A10EE101A084601F065FA41ECFC
:103A5000190BB0EE490AF0EE690AFDF7F9F8B0EE7D
:103A6000408AF0EE608A9FED4D0B53EC102B51EC29
:103A7000180B01F059F804D2BDEC048BBDE8F081BD
:103A80007CE005EB8400FFF7F9FB05EB840090ED8B
:103A9000000ADFED440AB4EEE00AF1EE10FA29DD87
:103AA00005EB840090ED000ADFED3F0A30EE600A7E
:103AB00039483C3000EB840080ED000A07EB8400BD
:103AC00090ED000AB1EE400A3348183800EB84004C
:103AD00080ED000A06EB840090ED000AB1EE400A8A
:103AE0002D4800EB840080ED000AFF212A48483071
:103AF000015520E005EB840090ED000A26483C309B
:103B000000EB840080ED000A07EB840090ED000AD2
:103B10002148183800EB840080ED000A06EB840091
:103B200090ED000A1C4800EB840080ED000A0121A2
:103B30001948483001551D4800EB840090ED000AFB
:103B400015480C3800EB840080ED000A1248183844
:103B500000EB840090ED000ADFED150A20EE200A4C
:103B60000D48183000EB840080ED000A39462046ED
:103B7000FEF75CF8012008491C390855601CC4B2E6
:103B8000032CFFF6FAAE01200A49887000BF73E7E4
:103B900000000000240300209402002000000060C8
:103BA000FB211940DB0F4940DB0FC94018030020FF
:103BB0000AD7233CA10000201EB50346DFED260AEC
:103BC000B0EE600A002033E003EB8004D4ED000A7D
:103BD000F5EEC00AF1EE10FA28D001EB8004D4ED26
:103BE000000AF5EEC00AF1EE10FA1FDD01EB8004C9
:103BF000D4ED000A02EB800494ED001AC0EE811AA5
:103C00006C4604EB8004C4ED001A6C4604EB80049F
:103C1000D4ED000AF4EEC00AF1EE10FA06DD6C46AF
:103C200004EB8004D4ED000AB0EE600A441CE0B25C
:103C30000328C9DB00200BE001EB8004D4ED000A6F
:103C400080EE801A02EB800484ED001A441CE0B27E
:103C50000328F1DB1EBD000000000000002101610F
:103C6000704702698A430261704700B502461046F8
:103C7000FFF7F4FF106800F0010018B9106840F079
:103C80000100106000BD0EB500218DF808104FF640
:103C9000FF7101910121ADF800109DE80E0080E850
:103CA0000E000EBD10B503460C46184600F010F885
:103CB0006068D8622088401E98621868217A40EABD
:103CC00001101860586940F00100586110BD0000F3
:103CD0005549884206D15549096841F00101534AC6
:103CE00011607047B0F1804F08D15049091F096831
:103CF00041F001014D4A121F1160F2E74C49884220
:103D000008D14A49091F096841F00201474A121FB8
:103D10001160E6E74749884208D14449091F09680C
:103D200041F00401414A121F1160DAE7424988421A
:103D300008D13E49091F096841F008013B4A121F9A
:103D40001160CEE73C49884208D13849091F09680B
:103D500041F00801354A121F1160C2E73749884215
:103D600008D13249091F096841F010012F4A121F7A
:103D70001160B6E73249884208D12C49091F096809
:103D800041F02001294A121F1160AAE72D498842FB
:103D900006D12649096841F00201244A116041E038
:103DA0002949884206D12149096841F480311F4AD6
:103DB000116096E72549884206D11C49096841F4FB
:103DC00000311A4A11608CE72149884206D117490F
:103DD000096841F48021154A116082E71D49884233
:103DE00008D11249091F096841F040010F4A121F0A
:103DF000116076E71849884208D10C49091F096803
:103E000041F08001094A121F11606AE71349884294
:103E100008D10649091F096841F48071034A121F3D
:103E200011605EE700BF5CE70000014044380240DB
:103E30000004004000080040000C0040001000405A
:103E400000140040000401400040014000440140D3
:103E50000048014000180040001C004000200040C5
:103E600000B503461846FFF733FF986940F2011189
:103E700008439861D86A4FF6FF710843D862186A00
:103E80001862986840F00300986000BDF0B50446E1
:103E90000F4615461E460020387239462046FFF769
:103EA00001FF3078E8B1A06940F06000A061A0692E
:103EB00040F00400A061A06940F00800A061206A01
:103EC00040F001002062E06A00EE100AB8EE400AFD
:103ED000D5ED000A20EE200ABCEEC00A10EE100A52
:103EE00060637078E8B1A06940F4C040A061A06947
:103EF00040F48060A061A06940F40060A061206A85
:103F000040F010002062E06A00EE100AB8EE400AAD
:103F1000D5ED010A20EE200ABCEEC00A10EE100A10
:103F2000A063B078E8B1E06940F06000E061E0696A
:103F300040F00400E061E06940F00800E061206AC0
:103F400040F480702062E06A00EE100AB8EE400A89
:103F5000D5ED020A20EE200ABCEEC00A10EE100ACF
:103F6000E063F078E8B1E06940F4C040E061E06906
:103F700040F48060E061E06940F40060E061206A44
:103F800040F480502062E06A00EE100AB8EE400A69
:103F9000D5ED030A20EE200ABCEEC00A10EE100A8E
:103FA000206401206061F0BDC2680A43C2607047AE
:103FB00001290CD1C26A00EE902AF8EE600A60EE88
:103FC000800AFCEEE00A10EE902A42637047022954
:103FD0000CD1C26A00EE902AF8EE600A60EE800A08
:103FE000FCEEE00A10EE902A8263EFE703290CD181
:103FF000C26A00EE902AF8EE600A60EE800AFCEEDB
:10400000E00A10EE902AC263E0E704290CD1C26AEC
:1040100000EE902AF8EE600A60EE800AFCEEE00AFC
:1040200010EE902A0264D1E70122426100BFCDE781
:10403000016841F00801016070470000002011E0B4
:104040000C4901EB800191ED000ADFED0B0AB4EEA3
:10405000E00AF1EE10FA03DD0121084A1170704701
:10406000411CC8B20428EBDB0021044A117000BFD8
:10407000F5E70000E00200206F12833BA100002062
:10408000C16841F40051C16070470CB54FF416513E
:10409000009100218DF805108DF806108DF80410A0
:1040A000DDE90012C0E900120CBD00002DE9F0416D
:1040B0002DED0E8B04460D46FCF76EFB4B48006859
:1040C00000F0E4FB41EC180BFFF7FCF8804600F031
:1040D000DDFB41EC190B53EC192B51EC180B00F0E4
:1040E00009FA41EC180B4248844202D0414884420C
:1040F0000FD1FFF71DF9804600F0C8FB41EC190B0A
:1041000053EC192B51EC180B00F0F4F941EC180B9F
:104110000EE0FFF7F7F8804600F0B8FB41EC190B12
:1041200053EC192B51EC180B00F0E4F941EC180B8F
:10413000204600F069F82069A97940EA0130206141
:10414000E068697940EA4120E0606069297940EAE5
:10415000C10060612968080100F098FB41EC1A0B6E
:1041600053EC1A2B51EC180B00F0C4F941EC190B6D
:1041700000F018FB0646304600F071FB41EC1C0BCA
:104180002968080100F082FB41EC1E0B53EC1E2B4A
:1041900051EC180B00F0AEF941EC1D0B53EC1C2B4D
:1041A00000F0D0FD41EC1B0B9FED130B53EC102BDB
:1041B00000F0BCFB41EC1A0B9FED110B53EC102BE4
:1041C00000F0E4F841EC190B00F0ECFA0746102F70
:1041D00001D1761C002707EB0610A060E06840F0D4
:1041E0002C00E060BDEC0E8BBDE8F0814C0100209E
:1041F00000100140001401400000000000003040A9
:10420000000000000000E03F2249884206D1224918
:10421000096841F01001204A116070471F49884227
:1042200008D11D49091F096841F400311A4A121FBB
:104230001160F2E71A49884208D11749091F096835
:1042400041F48021144A121F1160E6E715498842A3
:1042500008D11149091F096841F400210E4A121FB3
:104260001160DAE71049884208D10B49091F096833
:1042700041F48011084A121F1160CEE70B498842B1
:1042800006D10549096841F02001034A1160C4E7DD
:1042900000BFC2E700100140443802400044004023
:1042A00000480040004C0040005000400014014015
:1042B0000246094B106820F040001060516003E096
:1042C0005B1E0BB900207047106800F0400000280A
:1042D000F6D00120F7E700000094357702460B4B3B
:1042E0005160D06820F00400D06003E05B1E0BB981
:1042F00000207047106800F040000028F6D0D06819
:1043000040F00400D0600120F3E70000009435770E
:1043100081F00041704780F00040704721F000417B
:10432000704720F00040704721F00042A2F1605237
:10433000B2F5801F01F0004328BFD2F17F6C0BD98A
:104340005FEA001C43EAC20242EB507018BF70479C
:1043500028BF20F001007047B2F5801FBCBF18468F
:1043600070474FEA410C1CF5001F02D2084600F0CE
:1043700049BE70B500F084FB00000089FFF7F6BF6E
:104380004FF00040A0F580007047000010B591EAA2
:10439000030F48BF83F0004300F1DC84841A71EB03
:1043A000030C05D2121943EB0C03001B61EB0C014B
:1043B000DFF824E14FEA1154A4EB135C1EEA430F2B
:1043C00018BF9EEA445F73D023EA0E03DCF1200E8F
:1043D00021EA045143F4801332D322FA0CFE10EB8D
:1043E0000E0023FA0CFE41EB0E01CCF1200E03FA75
:1043F0000EFE10EB0E0051F10001B1F5801FCCF163
:10440000200E32D201EB045112FA0EF2BDE8104038
:1044100058BF7047401C38BF5FEA420218BF704760
:10442000002814BF20F0010041F100014FEA4103D0
:1044300013F5001F38BF7047A1F1C04100F06EBBFB
:10444000012A43EB0302ACF1200CDCF11F0E32BF5A
:104450004FF0000E23FA0CF310EB030041EB045174
:10446000B4EB115FD0D0A1EB045101F580114908E4
:104470005FEA300001EB04510ED350F1000038BF69
:1044800012FA0EFE08D1BDE81040C9E7401C38BF43
:104490005FEA4202CAD1C3E7BDE810404FEA4103D8
:1044A00013F5001F38BF7047A1F1C04100F036BBC3
:1044B0009EEA445F08D011EA5E0FBDE8104004BFD9
:1044C00001F0004100207047BDE8104070B500F0D9
:1044D000D7FA00BF64FBBE3E0000E0FF491058BFA2
:1044E000C1F140415B1058BFC3F140438B42EFF331
:1044F000008070472DE9C04130B4DFF8A0C23CEA2B
:10450000111418BF3CEA131400F0EC8081EA030593
:104510001CEA111444EAD57418BF1CEA131500F004
:10452000C780A4EB05044FF0004545EAC12145EAE8
:10453000C32341EA505143EA525304F17F74994234
:1045400004F500344FEAC0204FEAC22208BF90426F
:1045500000F09C804FEA13650FF24016765D4FEA3B
:10456000134506FB05F7C7F1807706FB07F74FEA0F
:10457000D737A7FB03687642C8F58038A7FB06CE7D
:1045800038BFA8F1010807FB08E64FF0000EA6FBB4
:10459000028CE6FB03CEDCF1000CCEF1004E38BFFE
:1045A000AEF1010EA6FB0C584FF000074FF00005CE
:1045B000E6FB0E87A1FB08C6A0FB07CE16EB0E0696
:1045C00045F10005E1FB076515F1E04E7EBFA4F55E
:1045D00080345FEA46066D4116F1800745F100051B
:1045E0004FEA17274FEA066647EA0567A6F1DE4657
:1045F000B6F1805F4FEA15251FD9384624F0010C2B
:1046000005EBC471BCF1FE6F01EB0C1102D8F0BCDC
:10461000BDE8008124425CBF01F5801E9EEAC47F94
:1046200002D4F0BCBDE80081244238D4F0BCA1F132
:10463000C041BDE8004100F071BA4FEAD22242EA1F
:1046400043524FEAD323A7FB02864FEAD02040EA29
:10465000415007FB03661EEA0E0F4FEAD12105FB0E
:10466000026658BFA6EB0056B6EB00564FEA520E54
:104670004EEAC37E18EB0E0E56EB530EBDD518EB6B
:1046800002085E417F1C55F10005B6E74FF4801526
:104690004FF000074FF000064FF00008ADE7F0BC08
:1046A0004FF0000001F1C04101F00041BDE8008180
:1046B00011EA0C1F0CEA131500D00CE013EA0C1FD2
:1046C00000F025804FF00000F0BC81EA030101F00A
:1046D0000041BDE80081F0BCBDE8004181EA030172
:1046E00000F01CBAF0BCBDE8004170B500F0C8F99C
:1046F000097EFC3E00F007B881EA03014FF000009C
:1047000001F00041704781EA030100F007BAF0BCF4
:10471000BDE800414FF0000021497047FFFDFBF963
:10472000F7F5F4F2F0EEEDEBE9E8E6E4E3E1E0DEE4
:10473000DDDBDAD8D7D5D4D3D1D0CFCDCCCBCAC856
:10474000C7C6C5C4C2C1C0BFBEBDBCBBBAB9B8B77D
:10475000B6B5B4B3B2B1B0AFAEADACABAAA9A8A870
:10476000A7A6A5A4A3A3A2A1A09F9F9E9D9C9C9B3E
:104770009A999998979796959594939392919190E9
:104780008F8F8E8E8D8C8C8B8B8A8989888887877A
:104790008685858484838382828181800000FF07EF
:1047A0000000F87F4FEA41034FEA5353A3F58063BB
:1047B000D3F11E03C8BFD3F1210C0CDD4FF0004232
:1047C00042EAC12242EA505232FA03FC8CEAE17C0E
:1047D000ACEBE1707047102BC4BF0020704703F5AD
:1047E000787CBCF1FF3F04D06FF0004282EA2100E8
:1047F000704770B500F044F949922480002070475A
:10480000F2E700004FEA1153A3F58063D3F11E03D2
:10481000A8BFD3F1200C08DB4FF0004242EAC122CE
:1048200052EA505232FA03F0704709420BD4102B6F
:10483000C4BF0020704703F5787CBCF1FF3F05D072
:104840004FF0FF3070474FF00000704770B500F038
:1048500017F900BF4992248000207047F0E710F05C
:10486000004248BF4042B0FA80F310FA03F10AD088
:10487000C3F11D0303F580634FEA415002EB03527D
:1048800002EBD12170474FF000007047B0FA80F37F
:1048900010FA03F10AD0C3F11D0303F580634FEA58
:1048A00041504FEA035202EBD12170474FF0000014
:1048B0007047000051EA030C17D41CF5801F58BF45
:1048C000BCF5801F00F10680994218BF704708BFF1
:1048D0009042704707D711F5801F58BF13F5801F0E
:1048E00019D499427047894270471CF5801F08D53A
:1048F000BCF5801FF7D58B4218BF704708BF8242B6
:1049000070474FF4001C1CEB410F38BF1CEB430FEA
:1049100001D28B42704770B500F0B2F89224490082
:104920004FF000514FF08053FFF7D8BDDFF848C17A
:1049300070B51CEA111E1EBF1CEA13159EEA0C0F6F
:1049400095EA0C0F00F06F8081EA030423EA4C1310
:104950004EEAD47E21EA4C1141F4801143F48013D5
:10496000AE44A1FB024CA0FB0365AEF17F7E36197D
:1049700055EB0C05A1FB034C4CF10003A0FB021C02
:1049800016EB0C06654153F10003094218BF46F0CF
:10499000010613F4007F0BD14FEA03314FEA0530D3
:1049A000340341EA155140EA16506FF003020AE061
:1049B0004FEAC3214FEAC520F40241EA555140EACB
:1049C00056506FF0020202EB2E4201EB025585EACF
:1049D000CE710AD05FEA440C18BF24F0004450F1B5
:1049E000000041F1000120EAD47040F2FE7C6245F3
:1049F00000D270BDA84214BF4FF080444FF0404435
:104A0000002E08BF0024BEF1806FA8BFA1F1C041F5
:104A1000BDE8704080F282804FF0000001F1C0419B
:104A200001F0004170479EEA0C0F0CEA131518BF05
:104A300095EA0C0F06D04FF0000081EA030E0EF04D
:104A4000004170BD00F01CF88900013E00F007B87D
:104A500000F009B84FEA430C5FEA5C5C08D081EAD9
:104A6000030100F05BB84FEA410C5FEA5C5CF6D1F1
:104A70004FF00000014970470000FF070000F87F79
:104A80000EF1020E2EF0030E5EF8046B364205D4D2
:104A9000012A43EB030515F5001F12D8012841EB4D
:104AA000010C1CF5001F0CD80ED14FEAD17C15F576
:104AB000001F0CEB4C0C0CF1020C08BF4CEBD37C30
:104AC00004E04FF0080C01E04FEAD37C0CEB4C05FE
:104AD00026FA05F606F00706B6F1040C06D20EEB30
:104AE000860CBDE870404CF0010C6047DFE80CF02C
:104AF000090B02024FF000414FF00000A1F5002128
:104B000070BD19461046012851EB010418BFD4F5B9
:104B1000001484BF002001F0004170BD0808A0F51A
:104B200000114FEA3101704753EA010C17D41CF50C
:104B3000801F58BFBCF5801F00F106808B4218BF54
:104B4000704708BF8242704707D713F5801F58BFD0
:104B500011F5801F19D48B4270479B4270471CF59A
:104B6000801F08D5BCF5801FF7D5994218BF704744
:104B700008BF904270474FF4001C1CEB430F38BF36
:104B80001CEB410F01D2994270470FB40CBC03BC1F
:104B9000FFF7C1BE91EA030F10B581F000413FF568
:104BA000FDAB83F0004300F0D5B800002DE9F041E3
:104BB00001F5801CBCF5001FC0F2A9804FEA115C12
:104BC00021EA0C510CF1FD0C41F480115FEA5C0C00
:104BD0000CF5C07C01D34000494130A4890241EA70
:104BE000905187028E0E0A0CA45D04FB04F602FBB2
:104BF00006F6C6F14046A4FB0662F60D46EA4226DA
:104C000006FB06F4A4FB01235242C3F1404338BF24
:104C10005B1EA6FB02420024E6FB0324D20B42EA01
:104C20004446A6FB0623A1FB02E2A3FB07E4E3FB49
:104C300061426442C2F1404E38BFAEF1010EA6FBA4
:104C400004234FF00002E6FB0E32A2FB03463400C1
:104C5000E2FB6264A1FB06E6A4FB07E8E4FB6168F3
:104C60007642C8F1405838BFA8F10108A2FB06E41B
:104C7000A3FB08E5E2FB6854A1FB05E6A7FB04E8FB
:104C8000E1FB648618F1200556F10006A809A8F199
:104C90001B08B10908F03F08B8F10A0F40EA866026
:104CA0001CD901EB0C51BDE8F08100BFFCF5EEE82A
:104CB000E2DDD8D3CFCBC7C3C0BDB9B6B4B1AEACBB
:104CC000A9A7A5A3A19F9D9B9A9896959392908F33
:104CD0008D8C8B898887868584838281A0FB006880
:104CE00000FB01F208EB4208B8EB872807D534181F
:104CF00058EB0104D5D5401C51F10001D1E7341A1D
:104D000078EB0104CDD4401E71F10001C9E75FEAE0
:104D10004C0C5FEA9C5C0DD105D34FF0000001F014
:104D20000041BDE8F081BDE8F04170B5FFF7A8FE95
:104D30006DDBFFBEBDE8F0414FF000000049704759
:104D40000000F87F10B591EA030F48BF83F00043DD
:104D50003FF524AB841A71EB030C07D212198CF0C7
:104D6000004C43EB0C03001B61EB0C01DFF8A4E1EA
:104D70004FEA1154A4EB135C1EEA430F18BF9EEADE
:104D8000445F00F0B08023EA6E03524221EA0451EE
:104D9000C3EB6E0338BF5B1EDCF1200E25D322FA75
:104DA0000CFE10EB0E0043FA0CFE41EB0E01CCF1B1
:104DB000200E03FA0EFE10EB0E0051F10001CCF1B3
:104DC000200E29D412FA0EF201EB0451BDE8104076
:104DD00058BF7047401C1CBFB2F1004F70470028FD
:104DE0000CBF491C20F00100704712EB020E43EB90
:104DF000030218BF4FF0010E4EEA4202ACF1200C44
:104E0000DCF11E0E54D943FA0CFE10EB0E0051F1EA
:104E1000FF31CCF11E0ED5D50EF1010E12FA0EFEA9
:104E2000404141EB010101EB445C5FEA5C5C10D95D
:104E300010EBDE7001EB045138BFBEF1004FBDE84E
:104E4000104018BF704700280CBF491C20F001001B
:104E5000704730D24FEAD42C11F5001124F40064CD
:104E60001BD0B1FA81F20B3AA41AA41ED2F120038E
:104E7000914030FA03F31943904001EBCC71002CC0
:104E800001EB0451BDE81040A8BF704701F1C041DB
:104E90004FF0000001F000417047B0FA80F310FAC3
:104EA00003F100D110BDE41A173C4805C90AE4E734
:104EB00001EB045110BD491001EB0451BDE8104055
:104EC0004FEA300002E04FF0000170474A0008BF8F
:104ED0000042F8D0B2F5001F28BF704701F0004132
:104EE0004FF0000070479EEA445F07D011EA5E0F62
:104EF000BDE8104004BF002100207047BDE810400D
:104F000070B5FFF7BDFD00BF40DFF63E83F0004106
:104F1000104670470000E0FF43004FEAD30C4FEA11
:104F20003C0C43401FBF40070CF1605113F0FE4F93
:104F300070471CF0006F03D100200CF00041704757
:104F40000CF0004343EA507010B540EACC0000F08A
:104F50000EF800BF000000924FEA0001FFF7DEBD2F
:104F60004FF000414FF00000A1F5002170470EF115
:104F7000020E2EF0030E5EF8044B244204D44FEAD6
:104F80004102B2F17F4F11D84FEA4003B3F17F4F96
:104F90000CD80ED14FEAD07CB2F17F4F0CEB4C0C09
:104FA0000CF1020C08BF4CEBD17C04E04FF0080C74
:104FB00001E04FEAD17C0CEB4C0324FA03F404F03B
:104FC0000704B4F1040C06D20EEB840CBDE81040CB
:104FD0004CF0010C6047DFE80CF0070802024FF0CC
:104FE0000040A0F5800010BD0846420018BFD2F175
:104FF000807288BF00F0004010BD4FF04070E1EEBD
:10500000100A7047FF2141EAD050C00570470000E8
:10501000CDCCCC3DCDCCCC3DCDCCCC3DCDCCCC3D08
:105020006F12033A6F12033A03FA0E3C0000C03FBE
:105030000000003F0000C040000000000000000031
:10504000010203040607080900000000010203042E
:105050004C5555555555A53F7751C1166CC156BF96
:105060009015CB19A001FA3EAD529C804F7E92BEA6
:10507000C4B1B4BD9EEE213ED43888BEE9FAA8BDC5
:1050800000004054FB21F93F3163621A61B4D03D06
:105090000000601A61B4D03D7370032E8A19A33BDF
:1050A0000000002E8A19A33BC14920259A837B3931
:1050B00000000000000000006E83F9A22915444E94
:1050C000D15727FCC0DD34F5999562DB4190433C14
:1050D000AB6351FE61C5BBDE3A6E24B7E0D24D42F0
:1050E000EA2E49061C92D1091CEB1DFE3EA729B1F0
:1050F000F53582E88444BB2E26709CE9417E5FB47E
:1051000039D69139F43953838B5F849C3B28F9BDA0
:10511000FF97F81F0F9805DE8B112FEF1F6D0A5AAE
:10512000CF7E366DB709CB27663F464F2DEA5F9E8F
:10513000C7BA27757BF1E5EBF739073DEA92528A4A
:10514000B15FFB6B085D8D1FA6F810111111813F37
:10515000D561C119A0012ABF7DFEB157E31DC73E2D
:10516000EB9C2B8AE6E55ABE7CD5CF5A3AD9E53D71
:10517000905100080000002050010000C401000808
:105180005052000850010020F808000020020008DA
:10519000011112085B4001085A02085A03083A0438
:1051A000085C02400E08420F5D1002400A086918B0
:1051B000091A2022241C40240404111A0108031097
:1051C0000140136F012A20045A8F0432C840095944
:1051D00054C34155C5D9414009ABC3F84150CB70C8
:1051E000C138081A9BF841B5D2811829243C07E33D
:1051F000C81881850BEBB8C07CFE568F6CA90C29B2
:105200002410311AE5F03B46A227BCC6E01FBC9C27
:105210006C053CA9C0663C43C3093C5CF809BC84EE
:105220009766BC3F8E58BD2FE72ABDFC4A2FBD8A2A
:10523000E65FBD1D020103090514040902100D03F8
:1052400009040905090609070809091324F40000DF
:04000005080002717C
:00000001FF
